:020000040800F2
:100000000000022005180008011600080716000865
:100010000D1600081316000819160008000000004D
:100020000000000000000000000000001F16000893
:100030002D160008000000003B16000849160008B5
:1000400055180008551800085518000855180008DC
:1000500055180008551800085518000855180008CC
:1000600055180008551800085518000855180008BC
:1000700055180008551800085518000855180008AC
:10008000551800085518000855180008551800089C
:10009000551800085518000855180008551800088C
:1000A000551800085518000855180008551800087C
:1000B000551800085518000855180008551800086C
:1000C000551800085518000855180008551800085C
:1000D000551800085518000855180008551800084C
:1000E000551800085518000855180008551800083C
:1000F000551800085518000855180008551800082C
:10010000551800085518000855180008551800081B
:10011000551800085518000855180008551800080B
:1001200055180008551800085518000855180008FB
:1001300055180008551800085518000855180008EB
:1001400055180008551800085518000855180008DB
:1001500055180008551800085518000855180008CB
:1001600055180008551800085518000855180008BB
:100170005518000855180008551800080000000020
:0801800055180008551800088D
:1001900010B5054C237833B9044B13B10448AFF3C1
:1001A00000800123237010BDD40100200000000056
:1001B0003888000808B5034B1BB103490348AFF367
:1001C000008008BD00000000D80100203888000829
:1001D00001F0FF01102A2BDB10F0070F08D010F8F8
:1001E000013B013A8B422DD010F0070F42B3F6D1FC
:1001F000F0B441EA012141EA014122F007047FF015
:1002000000070023F0E80256083C85EA010586EA6B
:10021000010685FA47F5A3FA87F586FA47F6A5FAA7
:1002200087F68EB9EED1F0BC01F0FF0102F00702B3
:1002300032B110F8013B013A83EA010313B1F8D15E
:100240000020704701387047002D06BF354603383F
:10025000073815F0010F07D1013015F4807F02BF78
:10026000013015F4C03F0130F0BC0138704700BFC9
:10027000034613F8012B002AFBD1181A01387047E6
:1002800081F0004102E000BF83F0004330B54FEA47
:1002900041044FEA430594EA050F08BF90EA020FB4
:1002A0001FBF54EA000C55EA020C7FEA645C7FEA47
:1002B000655C00F0E2804FEA5454D4EB5555B8BF6A
:1002C0006D420CDD2C4480EA020281EA030382EADB
:1002D000000083EA010180EA020281EA0303362D6D
:1002E00088BF30BD11F0004F4FEA01314FF4801C40
:1002F0004CEA113102D0404261EB410113F0004F52
:100300004FEA03334CEA133302D0524263EB430308
:1003100094EA050F00F0A780A4F10104D5F1200EA6
:100320000DDB02FA0EFC22FA05F2801841F1000101
:1003300003FA0EF2801843FA05F359410EE0A5F1D5
:1003400020050EF1200E012A03FA0EFC28BF4CF006
:10035000020C43FA05F3C01851EBE37101F00045BC
:1003600007D54FF0000EDCF1000C7EEB00006EEBC9
:100370000101B1F5801F1BD3B1F5001F0CD3490853
:100380005FEA30004FEA3C0C04F101044FEA4452AA
:1003900012F5800F80F09A80BCF1004F08BF5FEA31
:1003A000500C50F1000041EB045141EA050130BD11
:1003B0005FEA4C0C404141EB0101013C28BFB1F523
:1003C000801FE9D291F0000F04BF01460020B1FA6E
:1003D00081F308BF2033A3F10B03B3F120020CDA41
:1003E0000C3208DD02F1140CC2F10C0201FA0CF01F
:1003F00021FA02F10CE002F11402D8BFC2F1200C84
:1004000001FA02F120FA0CFCDCBF41EA0C01904039
:10041000E41AA2BF01EB0451294330BD6FEA040482
:100420001F3C1CDA0C340EDC04F11404C4F120026D
:1004300020FA04F001FA02F340EA030021FA04F37F
:1004400045EA030130BDC4F10C04C4F1200220FAD6
:1004500002F001FA04F340EA0300294630BD21FA14
:1004600004F0294630BD94F0000F83F4801306BFDA
:1004700081F480110134013D4EE77FEA645C18BFCE
:100480007FEA655C29D094EA050F08BF90EA020F65
:1004900005D054EA000C04BF1946104630BD91EA5D
:1004A000030F1EBF0021002030BD5FEA545C05D160
:1004B0004000494128BF41F0004130BD14F580049F
:1004C0003CBF01F5801130BD01F0004545F0FE4113
:1004D00041F470014FF0000030BD7FEA645C1ABF48
:1004E000194610467FEA655C1CBF0B46024650EA7F
:1004F000013406BF52EA033591EA030F41F40021AB
:1005000030BD00BF90F0000F04BF0021704730B530
:100510004FF4806404F132044FF000054FF0000105
:1005200050E700BF90F0000F04BF0021704730B5C6
:100530004FF4806404F1320410F0004548BF40429B
:100540004FF000013EE700BF42004FEAE2014FEAF0
:1005500031014FEA02701FBF12F07F4393F07F4FCB
:1005600081F06051704732F07F4208BF704793F0CE
:100570007F4F04BF41F40021704730B54FF46074E1
:1005800001F0004521F000411CE700BF50EA0102E4
:1005900008BF704730B54FF000050AE050EA01028D
:1005A00008BF704730B511F0004502D5404261EBFD
:1005B00041014FF4806404F132045FEA915C3FF43E
:1005C000D8AE4FF003025FEADC0C18BF03325FEADB
:1005D000DC0C18BF033202EBDC02C2F1200300FA8C
:1005E00003FC20FA02F001FA03FE40EA0E0021FAB1
:1005F00002F11444BDE600BF70B54FF0FF0C4CF49F
:10060000E06C1CEA11541DBF1CEA135594EA0C0F50
:1006100095EA0C0F00F0DEF82C4481EA030621EA8B
:100620004C5123EA4C5350EA013518BF52EA0335C6
:1006300041F4801143F4801338D0A0FB02CE4FF078
:100640000005E1FB02E506F00042E0FB03E54FF0A8
:100650000006E1FB03569CF0000F18BF4EF0010EA0
:10066000A4F1FF04B6F5007F64F5407404D25FEA9C
:100670004E0E6D4146EB060642EAC62141EA55514F
:100680004FEAC52040EA5E504FEACE2EB4F1FD0C91
:1006900088BFBCF5E06F1ED8BEF1004F08BF5FEA0F
:1006A000500E50F1000041EB045170BD06F00046C1
:1006B00046EA010140EA020081EA0301B4EB5C046E
:1006C000C2BFD4EB0C0541EA045170BD41F4801166
:1006D0004FF0000E013C00F3AB8014F1360FDEBF8B
:1006E000002001F0004170BDC4F10004203C35DA67
:1006F0000C341BDC04F11404C4F1200500FA05F3EA
:1007000020FA04F001FA05F240EA020001F000428A
:1007100021F0004110EBD37021FA04F642EB060100
:100720005EEA430E08BF20EAD37070BDC4F10C042A
:10073000C4F1200500FA04F320FA05F001FA04F2EE
:1007400040EA020001F0004110EBD37041F10001DA
:100750005EEA430E08BF20EAD37070BDC4F12005E5
:1007600000FA05F24EEA020E20FA04F301FA05F24D
:1007700043EA020321FA04F001F0004121FA04F2F5
:1007800020EA020000EBD3705EEA430E08BF20EAC5
:10079000D37070BD94F0000F0FD101F000464000FF
:1007A00041EB010111F4801F08BF013CF7D041EA81
:1007B000060195F0000F18BF704703F00046520085
:1007C00043EB030313F4801F08BF013DF7D043EA56
:1007D0000603704794EA0C0F0CEA135518BF95EA0C
:1007E0000C0F0CD050EA410618BF52EA4306D1D193
:1007F00081EA030101F000414FF0000070BD50EAB2
:10080000410606BF1046194652EA430619D094EA3B
:100810000C0F02D150EA013613D195EA0C0F05D125
:1008200052EA03361CBF104619460AD181EA030179
:1008300001F0004141F0FE4141F470014FF0000031
:1008400070BD41F0FE4141F4780170BD70B54FF0CC
:10085000FF0C4CF4E06C1CEA11541DBF1CEA13554C
:1008600094EA0C0F95EA0C0F00F0A7F8A4EB05042E
:1008700081EA030E52EA03354FEA013100F0888025
:100880004FEA03334FF0805545EA131343EA1263EE
:100890004FEA022245EA111545EA10654FEA0026A3
:1008A0000EF000419D4208BF964244F1FD0404F55C
:1008B000407402D25B084FEA3202B61A65EB0305B8
:1008C0005B084FEA32024FF480104FF4002CB6EB75
:1008D000020E75EB030E22BFB61A754640EA0C00F5
:1008E0005B084FEA3202B6EB020E75EB030E22BF35
:1008F000B61A754640EA5C005B084FEA3202B6EB76
:10090000020E75EB030E22BFB61A754640EA9C0034
:100910005B084FEA3202B6EB020E75EB030E22BF04
:10092000B61A754640EADC0055EA060E18D04FEAC2
:10093000051545EA16754FEA06164FEAC30343EA62
:1009400052734FEAC2025FEA1C1CC0D111F4801F2F
:100950000BD141EA00014FF000004FF0004CB6E728
:1009600011F4801F04BF01430020B4F1FD0C88BFC7
:10097000BCF5E06F3FF6AFAEB5EB030C04BFB6EBD2
:10098000020C5FEA500C50F1000041EB045170BDC5
:100990000EF0004E4EEA113114EB5C04C2BFD4EBF2
:1009A0000C0541EA045170BD41F480114FF0000E76
:1009B000013C90E645EA060E8DE60CEA135594EAF2
:1009C0000C0F08BF95EA0C0F3FF43BAF94EA0C0FF5
:1009D0000AD150EA01347FF434AF95EA0C0F7FF46A
:1009E00025AF104619462CE795EA0C0F06D152EABE
:1009F00003353FF4FDAE1046194622E750EA4106A2
:100A000018BF52EA43067FF4C5AE50EA41047FF4B2
:100A10000DAF52EA43057FF4EBAE12E74FF0FF3C17
:100A200006E000BF4FF0010C02E000BF4FF0010CE8
:100A30004DF804CD4FEA410C7FEA6C5C4FEA430C61
:100A400018BF7FEA6C5C1BD001B050EA410C0CBFB0
:100A500052EA430C91EA030F02BF90EA020F002012
:100A6000704710F1000F91EA030F58BF994208BF79
:100A700090422CBFD8176FEAE37040F00100704736
:100A80004FEA410C7FEA6C5C02D150EA013C07D18D
:100A90004FEA430C7FEA6C5CD6D152EA033CD3D0D8
:100AA0005DF8040B704700BF8446104662468C46D2
:100AB0001946634600E000BF01B5FFF7B7FF002805
:100AC00048BF10F1000F01BD4DF808EDFFF7F4FF2E
:100AD0000CBF012000205DF808FB00BF4DF808EDB9
:100AE000FFF7EAFF34BF012000205DF808FB00BFDC
:100AF0004DF808EDFFF7E0FF94BF012000205DF8FE
:100B000008FB00BF4DF808EDFFF7CEFF94BF0120B2
:100B100000205DF808FB00BF4DF808EDFFF7C4FFAB
:100B200034BF012000205DF808FB00BF4FEA410CF4
:100B30007FEA6C5C02D150EA013C0AD14FEA430CD7
:100B40007FEA6C5C02D152EA033C02D14FF0000014
:100B500070474FF0010070474FEA410212F5001252
:100B600015D211D56FF47873B3EB625212D94FEAF4
:100B7000C12343F0004343EA505311F0004F23FADE
:100B800002F018BF404270474FF00000704750EA33
:100B9000013005D111F0004008BF6FF000407047F0
:100BA0004FF00000704700BF4A0011D212F500124A
:100BB00011D20DD56FF47873B3EB62520ED44FEAB5
:100BC000C12343F0004343EA505323FA02F0704735
:100BD0004FF00000704750EA013002D14FF0FF3073
:100BE00070474FF0000070474FEA4102B2F1E04316
:100BF00024BFB3F5001CDCF1FE5C0DD901F0004C04
:100C00004FEAC0024CEA5070B2F1004F40EB830053
:100C100008BF20F00100704711F0804F21D113F17F
:100C20003872BCBF01F00040704741F480114FEAB8
:100C30005252C2F11802C2F1200C10FA0CF320FA41
:100C400002F018BF40F001004FEAC1234FEAD3235E
:100C500003FA0CFC40EA0C0023FA02F34FEA4303C8
:100C6000CCE77FEA625307D150EA01331EBF4FF051
:100C7000FE4040F44000704701F0004040F0FE406C
:100C800040F40000704700BF53B94AB9002908BFBB
:100C900000281CBF4FF0FF314FF0FF3000F0A6B925
:100CA000ADF1080C6DE904CE00F03CF8DDF804E08D
:100CB000DDE9022304B0704738B500220023044662
:100CC0000D46FFF70BFF28B920462946BDE83840FE
:100CD00000F00AB8204605F1004100F005F8404256
:100CE00061EB410138BD00BFD0B50C4B0022064678
:100CF0000F46FFF781FCFFF757FF0446FFF702FCA2
:100D0000074B0022FFF778FC02460B463046394677
:100D1000FFF7BAFAFFF748FF2146D0BD0000F03DCB
:100D20000000F0412DE9F047089E0D4604460F46AD
:100D3000002B4AD18A42944665D9B2FA82F343B174
:100D400002FA03FCC3F120029F4020FA02F217438B
:100D50009C404FEA1C4E1FFA8CF5B7FBFEF1220CAB
:100D60000EFB117742EA074201FB05F090420AD9D7
:100D70001CEB020201F1FF3780F01C81904240F22F
:100D8000198102396244121AA4B2B2FBFEF00EFBC2
:100D9000102244EA024400FB05F5A5420AD91CEBE7
:100DA000040400F1FF3280F00781A54240F2048183
:100DB0006444023840EA0140641B00211EB1DC405B
:100DC0000023C6E90043BDE8F0878B4208D9002E16
:100DD00000F0ED800021C6E900050846BDE8F08777
:100DE000B3FA83F1002949D1AB4202D3824200F227
:100DF000F880841A65EB030201201746002EE2D02A
:100E0000C6E90047DFE702B9FFDEB2FA82F3002B42
:100E100040F090808A1A4FEA1C471FFA8CFE01218D
:100E2000B2FBF7F507FB1520220C42EA00420EFB4D
:100E300005F0904208D91CEB020205F1FF3802D2FE
:100E4000904200F2CB804546121AA4B2B2FBF7F0F2
:100E500007FB102244EA02440EFB00FEA64508D917
:100E60001CEB040400F1FF3202D2A64500F2BB8065
:100E70001046A4EB0E0440EA05409FE7C1F12007AD
:100E80008B4022FA07FC4CEA030C05FA01F420FA25
:100E900007F3FD404FEA1C492343B5FBF9F81FFA5D
:100EA0008CFE09FB18551C0C44EA054408FB0EF5A2
:100EB000A54202FA01F200FA01F00BD91CEB04047E
:100EC00008F1FF3A80F08880A54240F28580A8F1C1
:100ED00002086444641B9DB2B4FBF9F309FB13449C
:100EE00045EA044403FB0EFEA64508D91CEB0404A6
:100EF00003F1FF356CD2A6456AD9023B644443EA4C
:100F00000843A3FB0295A4EB0E04AC42C846AE46D0
:100F100056D353D056B1B0EB080264EB0E0404FA7A
:100F200007F7CA40CC401743C6E9007418460021B1
:100F3000BDE8F087C3F1200102FA03FC20FA01F2B8
:100F400025FA01F19D402A434FEA1C471FFA8CFE07
:100F5000B1FBF7F007FB1015110C41EA054100FB4E
:100F60000EF58D4204FA03F408D91CEB010100F1DF
:100F7000FF382FD28D422DD902386144491B92B2DD
:100F8000B1FBF7F507FB151142EA014205FB0EF133
:100F9000914208D91CEB020205F1FF3816D29142AA
:100FA00014D9023D6244521A45EA004138E73146FD
:100FB000304608E73946E6E61046FBE64845A9D242
:100FC000B9EB020865EB0C0E013BA3E74546EAE7E7
:100FD0002B4694E74046D1E7D0467BE7023D62448A
:100FE00032E708460AE76444023842E7704700BF28
:100FF00080B582B000AF7860391D4FF0FF33012219
:10100000034802F019FC7B6818460837BD4680BDCE
:101010004402002080B586B002AF03460A46FB7149
:101020001346BB71FB793B73BB797B7307F10C02F1
:10103000642300930223A621064801F045F80346E5
:10104000002B02D1044803F051FF00BF1037BD460A
:1010500080BD00BFF00100205088000880B586B038
:1010600004AF03460A46FB711346BB71FB799AB283
:10107000BB799BB2642102910193094B0093012338
:10108000A621084801F01EF90346002B04D00648AB
:1010900003F02CFF00F0F6F900BF0837BD4680BD15
:1010A0008C020020F00100205488000880B500AFB9
:1010B00001210020FFF7D2FF00212D20FFF7AAFF1A
:1010C00008212D20FFF7A6FF01213120FFF7A2FF05
:1010D00000BF80BD000000002DE9B04386B004AF22
:1010E0006D4A3B1D1268114619800233120C1A70AA
:1010F00000F0B2FB00F0E6F800F09CF900F042F9D5
:1011000000F06EF9FFF7D2FF644803F0EFFE644B86
:101110001B781946634803F083FE06213220FFF74F
:101120009DFF5F4B5B781B021AB25D4B1B781BB2B5
:1011300013431AB25C4B1A80594BDB781B021AB26C
:10114000574B9B781BB213431AB2584B1A80544B1F
:101150005B791B021AB2524B1B791BB213431AB2B2
:10116000534B1A8097F904309AB24F4BB3F90030C1
:101170009BB213449BB21AB24B4B1A8097F90530BD
:101180009AB24A4BB3F900309BB213449BB21AB2E5
:10119000464B1A8097F906309AB2454BB3F90030A6
:1011A0009BB213449BB21AB2414B1A803E4BB3F927
:1011B00000301846FFF7B6F933A3D3E90023FFF751
:1011C0001BFA02460B4610461946FFF70DFD034673
:1011D000384A1360354BB3F900301846FFF7A2F9CF
:1011E00029A3D3E90023FFF707FA02460B4610466E
:1011F0001946FFF7F9FC03462F4A13602C4BB3F94D
:1012000000301846FFF78EF91FA3D3E90023FFF73C
:10121000F3F902460B4610461946FFF7E5FC034674
:10122000264A1360234B1B681846FFF78DF918A355
:10123000D3E90023FFF7E0F902460B4690469946B2
:101240001D4B1B681846FFF77FF911A3D3E9002354
:10125000FFF7D2F902460B4614461D46174B1B6892
:101260001846FFF771F90AA3D3E90023FFF7C4F981
:1012700002460B46CDE90223CDE9004542464B46E6
:101280000F4803F0CDFD48E7DE718A8EE4F27F3F20
:101290009A99999999992340D88800085C88000800
:1012A0008C0200208C88000892020020940200200A
:1012B00096020020980200209C020020A00200203C
:1012C000A088000880B594B000AF07F12003302259
:1012D0000021184603F00AFF07F10C0300221A60F0
:1012E0005A609A60DA601A610023BB60234B1B6C62
:1012F000224A43F080531364204B1B6C03F080534D
:10130000BB60BB6800237B601D4B1B681C4A43F419
:10131000804313601A4B1B6803F480437B607B6837
:1013200002233B620123FB6210233B630023BB6368
:1013300007F12003184601F097FD0346002B01D06A
:1013400000F0A0F80F23FB6000233B6100237B61CA
:101350004FF4A053BB614FF48053FB6107F10C03C2
:101360000021184601F0F8FF0346002B01D000F0E1
:1013700089F800BF5037BD4680BD00BF003802402D
:101380000070004080B500AF124B134A1A60114B39
:10139000124A5A600F4B00229A600E4B0022DA600C
:1013A0000C4B4FF480421A610A4B00225A61094BE0
:1013B00000229A61074B0022DA61064B00221A6272
:1013C000044800F03DFD0346002B01D000F05AF820
:1013D00000BF80BDF001002000580040A086010041
:1013E00080B500AF114B124A1A60104B4FF4E13236
:1013F0005A600E4B00229A600C4B0022DA600B4BB5
:1014000000221A61094B0C225A61084B00229A6192
:10141000064B0022DA61054802F0BEF90346002BB4
:1014200001D000F02FF800BF80BD00BF44020020B3
:101430000044004080B483B000AF00237B60104BB9
:101440001B6B0F4A43F0010313630D4B1B6B03F03F
:1014500001037B607B6800233B60094B1B6B084AE0
:1014600043F002031363064B1B6B03F002033B6064
:101470003B6800BF0C37BD465DF8047B704700BF7A
:101480000038024080B400AF72B600BFFEE7000033
:1014900080B582B000AF00237B60104B5B6C0F4ABD
:1014A00043F4804353640D4B5B6C03F480437B60D7
:1014B0007B6800233B60094B1B6C084A43F0805358
:1014C0001364064B1B6C03F080533B603B680720A2
:1014D00000F0E6FA00BF0837BD4680BD0038024084
:1014E00080B58AB000AF786007F1140300221A605B
:1014F0005A609A60DA601A617B681B68194A9342E5
:101500002CD100233B61184B1B6B174A43F002039D
:101510001363154B1B6B03F002033B613B694FF4F4
:1015200040637B611223BB610123FB6103233B62A8
:1015300004237B6207F1140319460C4800F0E4FA17
:101540000023FB60084B1B6C074A43F480031364C1
:10155000054B1B6C03F48003FB60FB6800BF28375E
:10156000BD4680BD005800400038024000040240E3
:1015700080B58AB000AF786007F1140300221A60CA
:101580005A609A60DA601A617B681B68194A934254
:101590002BD100233B61184B1B6C174A43F40033DB
:1015A0001364154B1B6C03F400333B613B69002350
:1015B000FB60114B1B6B104A43F0010313630E4B8E
:1015C0001B6B03F00103FB60FB680C237B610223B0
:1015D000BB610023FB6103233B6207237B6207F1AE
:1015E00014031946054800F08FFA00BF2837BD469E
:1015F00080BD00BF004400400038024000000240AF
:1016000080B400AFFEE780B400AFFEE780B400AF67
:10161000FEE780B400AFFEE780B400AFFEE780B421
:1016200000AF00BFBD465DF8047B704780B400AFDB
:1016300000BFBD465DF8047B704780B400AF00BFBB
:10164000BD465DF8047B704780B500AF00F056F9E9
:1016500000BF80BD80B400AF01231846BD465DF8D1
:10166000047B704780B582B000AF7860396003F0CA
:101670008FFD034616221A604FF0FF3318460837D5
:10168000BD4680BD80B582B000AF78604FF0FF31BD
:101690007868FFF7E7FFFEE780B586B000AFF86037
:1016A000B9607A6000237B610AE0AFF300800146F5
:1016B000BB685A1CBA60CAB21A707B6901337B617D
:1016C0007A697B689A42F0DB7B6818461837BD461A
:1016D00080BD80B586B000AFF860B9607A60002345
:1016E0007B6109E0BB685A1CBA601B781846FFF79B
:1016F0007FFC7B6901337B617A697B689A42F1DB0D
:101700007B6818461837BD4680BD80B483B000AFF3
:1017100078604FF0FF3318460C37BD465DF8047B08
:10172000704780B483B000AF786039603B684FF495
:1017300000525A60002318460C37BD465DF8047B02
:10174000704780B483B000AF7860012318460C372F
:10175000BD465DF8047B704780B485B000AFF8608B
:10176000B9607A60002318461437BD465DF8047BE3
:101770007047000080B586B000AF7860144A154B02
:10178000D31A7B617B693B61134B1B68002B02D131
:10179000114B124A1A60104B1A687B6813443A695D
:1017A0009A4207D203F0F4FC03460C221A604FF071
:1017B000FF3309E0084B1B68FB60074B1A687B6826
:1017C0001344054A1360FB6818461837BD4680BDB0
:1017D0000000022000040000A4020020F803002002
:1017E00080B400AF064BD3F88830054A43F4700349
:1017F000C2F8883000BFBD465DF8047B704700BF6B
:1018000000ED00E0DFF834D0FFF7EAFF0C480D49A7
:101810000D4A002302E0D458C4500433C4188C424B
:10182000F9D30A4A0A4C002301E013600432A242B1
:10183000FBD303F0B3FCFFF74FFC7047000002201E
:1018400000000020D4010020308D0008D4010020C9
:10185000F8030020FEE7000080B500AF0E4B1B68C8
:101860000D4A43F4007313600B4B1B680A4A43F4A0
:1018700080631360084B1B68074A43F4807313604E
:10188000032000F00DF9002000F008F8FFF700FE3B
:101890000023184680BD00BF003C024080B582B0E6
:1018A00000AF7860124B1A68124B1B7819464FF440
:1018B0007A73B3FBF1F3B2FBF3F3184600F017F9B8
:1018C0000346002B01D001230EE07B680F2B0AD8C2
:1018D000002279684FF0FF3000F0EDF8064A7B688F
:1018E0001360002300E0012318460837BD4680BD81
:1018F00000000020080000200400002080B400AF99
:10190000064B1B781A46064B1B681344044A1360A7
:1019100000BFBD465DF8047B704700BF0800002093
:10192000A802002080B400AF034B1B681846BD46D8
:101930005DF8047B704700BFA802002080B485B02A
:1019400000AF78607B6803F00703FB600C4BDB683B
:10195000BB60BA684FF6FF031340BB60FB681A0216
:10196000BB68134343F0BF6343F40033BB60044AD6
:10197000BB68D36000BF1437BD465DF8047B704779
:1019800000ED00E080B400AF044BDB681B0A03F0FD
:1019900007031846BD465DF8047B704700ED00E084
:1019A00080B483B000AF03463960FB7197F907300C
:1019B000002B0ADB3B68DAB20C4997F907301201B9
:1019C000D2B20B4483F800230AE03B68DAB208493C
:1019D000FB7903F00F03043B1201D2B20B441A76D9
:1019E00000BF0C37BD465DF8047B704700E100E0A6
:1019F00000ED00E080B489B000AFF860B9607A60B3
:101A0000FB6803F00703FB61FB69C3F10703042BC9
:101A100028BF0423BB61FB690433062B02D9FB6991
:101A2000033B00E000237B614FF0FF32BB6902FA09
:101A300003F3DA43BB681A407B699A404FF0FF31E9
:101A40007B6901FA03F3D9437B680B4013431846C3
:101A50002437BD465DF8047B7047000080B582B036
:101A600000AF78607B68013BB3F1807F01D3012335
:101A70000FE00A4A7B68013B53600F214FF0FF30B3
:101A8000FFF78EFF054B00229A60044B07221A6075
:101A9000002318460837BD4680BD00BF10E000E0B7
:101AA00080B582B000AF78607868FFF747FF00BF6D
:101AB0000837BD4680BD80B586B000AF0346B9602B
:101AC0007A60FB7300237B61FFF75CFF78617A68C3
:101AD000B9687869FFF78EFF024697F90F30114613
:101AE0001846FFF75DFF00BF1837BD4680BD80B5C3
:101AF00082B000AF78607868FFF7B0FF0346184601
:101B00000837BD4680BD000080B489B000AF786062
:101B1000396000237B6100233B610023BB6100230C
:101B2000FB616BE10122FB6902FA03F37B613B6815
:101B30001B687A6913403B613A697B699A4240F0BD
:101B40005A813B685B6803F00303012B05D03B68B7
:101B50005B6803F00303022B30D17B689B68BB6199
:101B6000FB695B00032202FA03F3DB43BA6913400B
:101B7000BB613B68DA68FB695B0002FA03F3BA6990
:101B80001343BB617B68BA699A607B685B68BB6121
:101B90000122FB6902FA03F3DB43BA691340BB611C
:101BA0003B685B681B0903F00102FB6902FA03F35F
:101BB000BA691343BB617B68BA695A603B685B686A
:101BC00003F00303032B17D07B68DB68BB61FB6961
:101BD0005B00032202FA03F3DB43BA691340BB61E3
:101BE0003B689A68FB695B0002FA03F3BA69134326
:101BF000BB617B68BA69DA603B685B6803F003032A
:101C0000022B23D1FB69DA087B68083253F82230B3
:101C1000BB61FB6903F007039B000F2202FA03F389
:101C2000DB43BA691340BB613B681A69FB6903F087
:101C300007039B0002FA03F3BA691343BB61FB6914
:101C4000DA087B680832B96943F822107B681B68A0
:101C5000BB61FB695B00032202FA03F3DB43BA6951
:101C60001340BB613B685B6803F00302FB695B00E8
:101C700002FA03F3BA691343BB617B68BA691A605D
:101C80003B685B6803F44033002B00F0B480002312
:101C9000FB60604B5B6C5F4A43F4804353645D4B75
:101CA0005B6C03F48043FB60FB685B4AFB699B0849
:101CB000023352F82330BB61FB6903F003039B003E
:101CC0000F2202FA03F3DB43BA691340BB617B685E
:101CD000524A93422BD07B68514A934225D07B686D
:101CE000504A93421FD07B684F4A934219D07B6879
:101CF0004E4A934213D07B684D4A93420DD07B6885
:101D00004C4A934207D07B684B4A934201D1072348
:101D10000EE008230CE006230AE0052308E0042374
:101D200006E0032304E0022302E0012300E0002395
:101D3000FA6902F0030292009340BA691343BB614F
:101D40003549FB699B080233BA6941F823203B4BB4
:101D50009B68BB613B69DB43BA691340BB613B686D
:101D60005B6803F48013002B03D0BA693B6913430B
:101D7000BB61324ABB699360304BDB68BB613B6936
:101D8000DB43BA691340BB613B685B6803F4001333
:101D9000002B03D0BA693B691343BB61274ABB6977
:101DA000D360264B5B68BB613B69DB43BA69134078
:101DB000BB613B685B6803F40033002B03D0BA6956
:101DC0003B691343BB611D4ABB6953601B4B1B68D6
:101DD000BB613B69DB43BA691340BB613B685B682D
:101DE00003F48033002B03D0BA693B691343BB6112
:101DF000124ABB691360FB690133FB61FB690F2B5E
:101E00007FF690AE00BF00BF2437BD465DF8047B6F
:101E1000704700BF00380240003801400000024017
:101E20000004024000080240000C02400010024082
:101E30000014024000180240001C0240003C014017
:101E400080B584B000AF78607B68002B01D101239E
:101E50002BE17B6893F83D30DBB2002B06D17B6829
:101E6000002283F83C207868FFF73AFB7B68242245
:101E700083F83D207B681B681A687B681B6822F02A
:101E800001021A607B681B681A687B681B6842F451
:101E900000421A607B681B681A687B681B6822F422
:101EA00000421A6001F050FCF8607B685B68814A70
:101EB000934207D8FB68804A934294BF01230023D2
:101EC000DBB206E0FB687D4A934294BF0123002306
:101ED000DBB2002B01D00123E7E0FB68784AA2FBCC
:101EE00003239B0CBB607B681B685B6823F03F018E
:101EF0007B681B68BA680A435A607B681B681B6A68
:101F000023F03F017B685B686A4A934202D8BB6852
:101F1000013309E0BB684FF4967202FB03F3694A90
:101F2000A2FB03239B0901337A6812680B431362F7
:101F30007B681B68DB6923F44F4222F0FF027B6859
:101F40005B685C498B4219D8FB68591E7B685B68EB
:101F50005B00B1FBF3F3591C40F6FC730B40002B04
:101F60000AD0FB68591E7B685B685B00B1FBF3F32A
:101F70000133C3F30B0351E004234FE07B689B68FC
:101F8000002B11D1FB68581E7B6859680B465B001B
:101F90000B44B0FBF3F30133C3F30B03002B0CBF73
:101FA00001230023DBB212E0FB68581E7B685968EE
:101FB0000B469B000B4499000B44B0FBF3F3013339
:101FC000C3F30B03002B0CBF01230023DBB2002B58
:101FD00001D0012322E07B689B68002B0ED1FB68B7
:101FE000581E7B6859680B465B000B44B0FBF3F34B
:101FF0000133C3F30B0343F400430FE0FB68581EA7
:102000007B6859680B469B000B4499000B44B0FB5E
:10201000F3F30133C3F30B0343F4404379680968D6
:102020001343CB617B681B681B6823F0C0017B688E
:10203000DA697B681B6A1A437B681B680A431A606B
:102040007B681B689B6823F4034323F0FF037A68D3
:1020500011697A68D26811437A6812680B439360F9
:102060007B681B68DB6823F0FF017B685A697B682B
:102070009B691A437B681B680A43DA607B681B68AC
:102080001A687B681B6842F001021A607B680022B4
:102090001A647B68202283F83D207B6800221A6343
:1020A0007B68002283F83E20002318461037BD4687
:1020B00080BD00BFA08601007F841E00FF083D0098
:1020C00083DE1B43D34D621080B588B002AFF86049
:1020D0007A601A460B467B8113463B81FFF722FC50
:1020E0007861FB6893F83D30DBB2202B40F0E08054
:1020F0007B690093192301227049F86800F07EFC87
:102100000346002B01D00223D3E0FB6893F83C3058
:10211000012B01D10223CCE0FB68012283F83C2093
:10212000FB681B681B6803F00103012B07D0FB68E9
:102130001B681A68FB681B6842F001021A60FB68A2
:102140001B681A68FB681B6822F400621A60FB684F
:10215000212283F83D20FB68102283F83E20FB6893
:1021600000221A64FB687A685A62FB683A895A85C9
:10217000FB685B8D9AB2FB681A85FB68504ADA628D
:1021800079897B693A6AF86800F0CEFA0346002B39
:1021900001D001238DE000233B61FB681B685B6974
:1021A0003B61FB681B689B693B613B6966E07A6940
:1021B000396AF86800F03CFD0346002B0DD0FB683F
:1021C0001B6C042B07D1FB681B681A68FB681B6833
:1021D00042F400721A6001236BE0FB685B6A1A78B4
:1021E000FB681B681A61FB685B6A5A1CFB685A62D1
:1021F000FB685B8D9BB2013B9AB2FB685A85FB681A
:102200001B8D013B9AB2FB681A85FB681B685B69F2
:1022100003F00403042B1BD1FB681B8D002B17D08C
:10222000FB685B6A1A78FB681B681A61FB685B6A6B
:102230005A1CFB685A62FB685B8D9BB2013B9AB2E9
:10224000FB685A85FB681B8D013B9AB2FB681A85B7
:102250007A69396AF86800F033FD0346002B0DD027
:10226000FB681B6C042B07D1FB681B681A68FB68B2
:102270001B6842F400721A6001231AE0FB681B8D90
:10228000002B94D1FB681B681A68FB681B6842F43A
:1022900000721A60FB68202283F83D20FB68002250
:1022A00083F83E20FB68002283F83C20002300E0F6
:1022B000022318461837BD4680BD00BF020010003B
:1022C0000000FFFF80B58CB002AFF86008461146F1
:1022D0001A4603467B810B463B811346FB80FFF782
:1022E00021FB7862FB6893F83D30DBB2202B40F095
:1022F00014827B6A0093192301227B49F86800F05D
:102300007DFB0346002B01D0022307E2FB6893F814
:102310003C30012B01D1022300E2FB68012283F84B
:102320003C20FB681B681B6803F00103012B07D0EE
:10233000FB681B681A68FB681B6842F001021A60A0
:10234000FB681B681A68FB681B6822F400621A604D
:10235000FB68222283F83D20FB68402283F83E2060
:10236000FB6800221A64FB683A6B5A62FB68BA8EFB
:102370005A85FB685B8D9AB2FB681A85FB685B4ADD
:10238000DA62F8883A8979897B6A0193BB6B00939A
:102390000346F86800F04AFA0346002B01D00123F7
:1023A000BCE1FB681B8D002B13D100233B62FB6853
:1023B0001B685B693B62FB681B689B693B623B6A0D
:1023C000FB681B681A68FB681B6842F400721A609D
:1023D00090E1FB681B8D012B1BD1FB681B681A6801
:1023E000FB681B6822F480621A600023FB61FB68B3
:1023F0001B685B69FB61FB681B689B69FB61FB6990
:10240000FB681B681A68FB681B6842F400721A605C
:1024100070E1FB681B8D022B1BD1FB681B681A68DF
:10242000FB681B6822F480621A60FB681B681A68EC
:10243000FB681B6842F400621A600023BB61FB6802
:102440001B685B69BB61FB681B689B69BB61BB69FF
:1024500050E100237B61FB681B685B697B61FB6863
:102460001B689B697B617B6944E1FB681B8D032BC7
:1024700000F2F180FB681B8D012B23D17A6AB96BC6
:10248000F86800F065FC0346002B01D0012345E10C
:10249000FB681B681A69FB685B6AD2B21A70FB683A
:1024A0005B6A5A1CFB685A62FB681B8D013B9AB23F
:1024B000FB681A85FB685B8D9BB2013B9AB2FB6897
:1024C0005A8517E1FB681B8D022B4ED17B6A009366
:1024D000BB6B00220649F86800F090FA0346002B17
:1024E00008D001231AE100BF020010000000FFFF26
:1024F00004000100FB681B681A68FB681B6842F453
:1025000000721A60FB681B681A69FB685B6AD2B2CA
:102510001A70FB685B6A5A1CFB685A62FB681B8D69
:10252000013B9AB2FB681A85FB685B8D9BB2013B4D
:102530009AB2FB685A85FB681B681A69FB685B6A7C
:10254000D2B21A70FB685B6A5A1CFB685A62FB685D
:102550001B8D013B9AB2FB681A85FB685B8D9BB2B1
:10256000013B9AB2FB685A85C4E07B6A0093BB6B5F
:1025700000226C49F86800F041FA0346002B01D0B4
:102580000123CBE0FB681B681A68FB681B6822F418
:1025900080621A60FB681B681A69FB685B6AD2B2CA
:1025A0001A70FB685B6A5A1CFB685A62FB681B8DD9
:1025B000013B9AB2FB681A85FB685B8D9BB2013BBD
:1025C0009AB2FB685A857B6A0093BB6B002255491F
:1025D000F86800F013FA0346002B01D001239DE0B8
:1025E000FB681B681A68FB681B6842F400721A607B
:1025F000FB681B681A69FB685B6AD2B21A70FB68D9
:102600005B6A5A1CFB685A62FB681B8D013B9AB2DD
:10261000FB681A85FB685B8D9BB2013B9AB2FB6835
:102620005A85FB681B681A69FB685B6AD2B21A702C
:10263000FB685B6A5A1CFB685A62FB681B8D013B96
:102640009AB2FB681A85FB685B8D9BB2013B9AB21C
:10265000FB685A854EE07A6AB96BF86800F078FB3F
:102660000346002B01D0012358E0FB681B681A6960
:10267000FB685B6AD2B21A70FB685B6A5A1CFB6823
:102680005A62FB681B8D013B9AB2FB681A85FB6896
:102690005B8D9BB2013B9AB2FB685A85FB681B6855
:1026A0005B6903F00403042B24D1FB681B8D032B0F
:1026B00007D1FB681B681A68FB681B6822F48062FC
:1026C0001A60FB681B681A69FB685B6AD2B21A70F1
:1026D000FB685B6A5A1CFB685A62FB681B8D013BF6
:1026E0009AB2FB681A85FB685B8D9BB2013B9AB27C
:1026F000FB685A85FB681B8D002B7FF4B6AEFB6828
:10270000202283F83D20FB68002283F83E20FB68EE
:10271000002283F83C20002300E0022318462837DB
:10272000BD4680BD0400010080B588B002AFF860EE
:102730007A603B600B467B81FB68DB6A7B617B696F
:10274000082B06D07B69012B03D07B6913F5803FF2
:1027500008D1FB681B681A68FB681B6842F480722A
:102760001A600BE0FB681B6B122B07D1FB681B6820
:102770001A68FB681B6842F480721A603B68009319
:102780007B6800224FF00111F86800F037F903462A
:10279000002B0DD0FB681B681B6803F48073B3F536
:1027A000807F03D1FB684FF400721A64032335E085
:1027B000FB681B69B3F5804F08D17B89DBB21A46F1
:1027C000FB681B6802F0FE021A611BE07B89DB11CB
:1027D000DBB203F00603DBB263F00F03DAB2FB688F
:1027E0001B681A613B687A680E49F86800F080F946
:1027F0000346002B01D0012310E07B89DAB2FB688D
:102800001B681A613B687A680749F86800F070F93C
:102810000346002B01D0012300E00023184618379F
:10282000BD4680BD080001000200010080B588B0EF
:1028300002AFF860084611461A4603467B810B46F4
:102840003B811346FB80FB681B681A68FB681B68AA
:1028500042F480621A60FB681B681A68FB681B6898
:1028600042F480721A607B6A00933B6A00224FF048
:102870000111F86800F0C2F80346002B0DD0FB6888
:102880001B681B6803F48073B3F5807F03D1FB687A
:102890004FF400721A640323AAE07B89DBB21A4664
:1028A000FB681B6802F0FE021A617B6A3A6A5249B1
:1028B000F86800F01DF90346002B01D0012397E0D2
:1028C00000237B61FB681B685B697B61FB681B689D
:1028D0009B697B617B697A6A396AF86800F0A8F9BC
:1028E0000346002B0DD0FB681B6C042B07D1FB6843
:1028F0001B681A68FB681B6842F400721A600123A7
:1029000076E0FB88012B05D13B89DAB2FB681B68B6
:102910001A6121E03B891B0A9BB2DAB2FB681B6893
:102920001A617A6A396AF86800F082F90346002B66
:102930000DD0FB681B6C042B07D1FB681B681A6861
:10294000FB681B6842F400721A60012350E03B8967
:10295000DAB2FB681B681A617A6A396AF86800F0B3
:1029600067F90346002B0DD0FB681B6C042B07D1C5
:10297000FB681B681A68FB681B6842F400721A60E7
:10298000012335E0FB681B681A68FB681B6842F48A
:1029900080721A607B6A00933B6A00224FF001113B
:1029A000F86800F02BF80346002B0DD0FB681B687D
:1029B0001B6803F48073B3F5807F03D1FB684FF489
:1029C00000721A64032313E07B89DBB243F0010336
:1029D000DAB2FB681B681A617B6A3A6A0649F868D2
:1029E00000F086F80346002B01D0012300E000230D
:1029F00018461837BD4680BD0200010080B584B07E
:102A000000AFF860B9603B601346FB7148E03B687B
:102A1000B3F1FF3F44D0FEF785FF0246BB69D31AEE
:102A20003A689A4202D33B68002B39D1BB681B0C31
:102A3000DBB2012B0DD1FB681B685B69DA43BB6815
:102A400013409BB2002B0CBF01230023DBB21A46BC
:102A50000CE0FB681B689B69DA43BB6813409BB2C0
:102A6000002B0CBF01230023DBB21A46FB799A42EC
:102A700016D1FB6800221A63FB68202283F83D20F0
:102A8000FB68002283F83E20FB681B6C43F02002A9
:102A9000FB681A64FB68002283F83C20012323E0D2
:102AA000BB681B0CDBB2012B0DD1FB681B685B699B
:102AB000DA43BB6813409BB2002B0CBF01230023F9
:102AC000DBB21A460CE0FB681B689B69DA43BB6803
:102AD00013409BB2002B0CBF01230023DBB21A462C
:102AE000FB799A4293D0002318461037BD4680BD2B
:102AF00080B584B000AFF860B9607A603B6071E087
:102B0000FB681B685B6903F48063B3F5806F23D1B6
:102B1000FB681B681A68FB681B6842F400721A6045
:102B2000FB681B686FF480625A61FB6800221A63BD
:102B3000FB68202283F83D20FB68002283F83E20BA
:102B4000FB681B6C43F00402FB681A64FB680022FC
:102B500083F83C20012367E07B68B3F1FF3F41D05D
:102B6000FEF7E0FE02463B68D31A7A689A4202D327
:102B70007B68002B36D1BB681B0CDBB2012B0CD160
:102B8000FB681B685B69DA43BB6813409BB2002B90
:102B900014BF01230023DBB20BE0FB681B689B69B9
:102BA000DA43BB6813409BB2002B14BF0123002300
:102BB000DBB2002B16D0FB6800221A63FB682022D0
:102BC00083F83D20FB68002283F83E20FB681B6CE5
:102BD00043F02002FB681A64FB68002283F83C2063
:102BE000012321E0BB681B0CDBB2012B0CD1FB687D
:102BF0001B685B69DA43BB6813409BB2002B14BFB0
:102C000001230023DBB20BE0FB681B689B69DA43FE
:102C1000BB6813409BB2002B14BF01230023DBB21F
:102C2000002B7FF46DAF002318461037BD4680BDE2
:102C300080B584B000AFF860B9607A6034E0F868BD
:102C400000F0E3F80346002B01D0012334E0BB6819
:102C5000B3F1FF3F28D0FEF765FE02467B68D31A2A
:102C6000BA689A4202D3BB68002B1DD1FB681B686F
:102C70005B6903F08003802B16D0FB6800221A6387
:102C8000FB68202283F83D20FB68002283F83E2069
:102C9000FB681B6C43F02002FB681A64FB6800228F
:102CA00083F83C20012307E0FB681B685B6903F0A5
:102CB0008003802BC3D1002318461037BD4680BD4A
:102CC00080B584B000AFF860B9607A6034E0F8682D
:102CD00000F09BF80346002B01D0012334E0BB68D1
:102CE000B3F1FF3F28D0FEF71DFE02467B68D31AE2
:102CF000BA689A4202D3BB68002B1DD1FB681B68DF
:102D00005B6903F00403042B16D0FB6800221A63EE
:102D1000FB68202283F83D20FB68002283F83E20D8
:102D2000FB681B6C43F02002FB681A64FB680022FE
:102D300083F83C20012307E0FB681B685B6903F014
:102D40000403042BC3D1002318461037BD4680BDB1
:102D500080B584B000AFF860B9607A6049E0FB6884
:102D60001B685B6903F01003102B19D1FB681B680B
:102D70006FF010025A61FB6800221A63FB68202280
:102D800083F83D20FB68002283F83E20FB681A6C24
:102D9000FB681A64FB68002283F83C20012330E0C2
:102DA000FEF7C0FD02467B68D31ABA689A4202D386
:102DB000BB68002B1DD1FB681B685B6903F04003F7
:102DC000402B16D0FB6800221A63FB68202283F890
:102DD0003D20FB68002283F83E20FB681B6C43F01B
:102DE0002002FB681A64FB68002283F83C20012360
:102DF00007E0FB681B685B6903F04003402BAED122
:102E0000002318461037BD4680BD80B483B000AFA4
:102E100078607B681B685B6903F48063B3F5806F3F
:102E20001BD17B681B686FF480625A617B6800224B
:102E30001A637B68202283F83D207B68002283F898
:102E40003E207B681B6C43F004027B681A647B683D
:102E5000002283F83C20012300E0002318460C37B1
:102E6000BD465DF8047B704780B586B000AF7860E2
:102E70007B68002B01D1012367E27B681B6803F0AC
:102E80000103002B75D0884B9B6803F00C03042BC7
:102E90000CD0854B9B6803F00C03082B12D1824B9E
:102EA0005B6803F48003B3F5800F0BD17E4B1B6886
:102EB00003F40033002B5BD07B685B68002B57D199
:102EC000012342E27B685B68B3F5803F06D1764B15
:102ED0001B68754A43F4803313601DE07B685B68B0
:102EE000B3F5A02F0CD1704B1B686F4A43F48023BD
:102EF00013606D4B1B686C4A43F4803313600BE026
:102F0000694B1B68684A23F480331360664B1B6867
:102F1000654A23F4802313607B685B68002B13D021
:102F2000FEF700FD386108E0FEF7FCFC02463B6955
:102F3000D31A642B01D9032307E25B4B1B6803F40C
:102F40000033002BF0D014E0FEF7ECFC386108E011
:102F5000FEF7E8FC02463B69D31A642B01D9032330
:102F6000F3E1514B1B6803F40033002BF0D100E078
:102F700000BF7B681B6803F00203002B63D04A4B41
:102F80009B6803F00C03002B0BD0474B9B6803F0AE
:102F90000C03082B1CD1444B5B6803F48003002B0B
:102FA00016D1414B1B6803F00203002B05D07B6850
:102FB000DB68012B01D00123C7E13B4B1B6823F0E9
:102FC000F8027B681B69DB00374913430B603AE06A
:102FD0007B68DB68002B20D0344B01221A60FEF79F
:102FE000A1FC386108E0FEF79DFC02463B69D31A5C
:102FF000022B01D90323A8E12B4B1B6803F002032A
:10300000002BF0D0284B1B6823F0F8027B681B696B
:10301000DB00254913430B6015E0244B00221A60A6
:10302000FEF780FC386108E0FEF77CFC02463B6955
:10303000D31A022B01D9032387E11B4B1B6803F032
:103040000203002BF0D17B681B6803F00803002B00
:1030500036D07B685B69002B16D0154B01221A60B5
:10306000FEF760FC386108E0FEF75CFC02463B6955
:10307000D31A022B01D9032367E10B4B5B6F03F0DB
:103080000203002BF0D01BE0094B00221A60FEF770
:1030900049FC38610EE0FEF745FC02463B69D31A55
:1030A000022B07D9032350E10038024000004742B9
:1030B000800E4742884B5B6F03F00203002BEAD17E
:1030C0007B681B6803F00403002B00F0978000234B
:1030D000FB75814B1B6C03F08053002B0FD1002339
:1030E000BB607D4B1B6C7C4A43F0805313647A4B6E
:1030F0001B6C03F08053BB60BB680123FB75774BEF
:103100001B6803F48073002B18D1744B1B68734A3F
:1031100043F480731360FEF705FC386108E0FEF7A6
:1031200001FC02463B69D31A022B01D903230CE1AF
:103130006A4B1B6803F48073002BF0D07B689B689C
:10314000012B06D1644B1B6F634A43F001031367E5
:103150001CE07B689B68052B0CD15F4B1B6F5E4AA4
:1031600043F0040313675C4B1B6F5B4A43F001039E
:1031700013670BE0584B1B6F574A23F0010313678B
:10318000554B1B6F544A23F0040313677B689B68FD
:10319000002B15D0FEF7C6FB38610AE0FEF7C2FB34
:1031A00002463B69D31A41F28832934201D9032384
:1031B000CBE0494B1B6F03F00203002BEED014E071
:1031C000FEF7B0FB38610AE0FEF7ACFB02463B6954
:1031D000D31A41F28832934201D90323B5E03E4B22
:1031E0001B6F03F00203002BEED1FB7D012B05D1F9
:1031F000394B1B6C384A23F0805313647B689B69FE
:10320000002B00F0A180344B9B6803F00C03082BCB
:103210005CD07B689B69022B41D1314B00221A6044
:10322000FEF780FB386108E0FEF77CFB02463B6955
:10323000D31A022B01D9032387E0274B1B6803F025
:103240000073002BF0D17B68DA697B681B6A1A4334
:103250007B685B6A9B011A437B689B6A5B08013B46
:103260001B041A437B68DB6A1B061B4913434B6034
:103270001B4B01221A60FEF755FB386108E0FEF790
:1032800051FB02463B69D31A022B01D903235CE0B0
:10329000114B1B6803F00073002BF0D054E0104B6F
:1032A00000221A60FEF73EFB386108E0FEF73AFBA9
:1032B00002463B69D31A022B01D9032345E0064B92
:1032C0001B6803F00073002BF0D13DE07B689B6925
:1032D000012B07D1012338E0003802400070004084
:1032E000600047421B4B5B68FB607B689B69012B5E
:1032F00028D0FB6803F480027B68DB699A4221D105
:10330000FB6803F03F027B681B6A9A421AD1FA6895
:1033100047F6C07313407A68526A9201934211D102
:10332000FB6803F440327B689B6A5B08013B1B042B
:103330009A4207D1FB6803F070627B68DB6A1B0668
:103340009A4201D0012300E0002318461837BD46F9
:1033500080BD00BF0038024080B584B000AF786007
:1033600039607B68002B01D10123CCE0684B1B68DE
:1033700003F007033A689A420CD9654B3A68D2B217
:103380001A70634B1B6803F007033A689A4201D036
:103390000123B8E07B681B6803F00203002B20D0F8
:1033A0007B681B6803F00403002B05D0594B9B6816
:1033B000584A43F4E05393607B681B6803F00803AA
:1033C000002B05D0534B9B68524A43F460439360F3
:1033D000504B9B6823F0F0027B689B684D49134378
:1033E0008B607B681B6803F00103002B44D07B6873
:1033F0005B68012B07D1474B1B6803F40033002B9C
:1034000019D101237FE07B685B68022B03D07B68C6
:103410005B68032B07D13F4B1B6803F00073002B45
:1034200009D101236FE03B4B1B6803F00203002B23
:1034300001D1012367E0374B9B6823F003027B68CF
:103440005B68344913438B60FEF76CFAF8600AE05E
:10345000FEF768FA0246FB68D31A41F288329342BB
:1034600001D903234FE02B4B9B6803F00C027B68D0
:103470005B689B009A42EBD1254B1B6803F0070366
:103480003A689A420CD2224B3A68D2B21A70204B58
:103490001B6803F007033A689A4201D0012332E027
:1034A0007B681B6803F00403002B08D0194B9B6852
:1034B00023F4E0527B68DB68164913438B607B681A
:1034C0001B6803F00803002B09D0124B9B6823F400
:1034D00060427B681B69DB000E4913438B6000F080
:1034E00021F802460B4B9B681B0903F00F030A49A6
:1034F000CB5C22FA03F3094A1360094B1B68184698
:10350000FEF7CCF9002318461037BD4680BD00BF3A
:10351000003C024000380240DC8800080000002027
:10352000040000202DE9B04F94B000AF00237B646D
:103530000023FB6400233B640023BB64794B9B683E
:1035400003F00C03082B0DD0082B00F2E180002BB8
:1035500002D0042B03D0DBE0734BBB64DBE0734B86
:10356000BB64D8E06F4B5B6803F03F037B646D4B3B
:103570005B6803F48003002B63D06A4B5B689B0994
:103580000022BB63FA63BB6BC3F308033B630023F6
:103590007B63D7E90C4522462B464FF000004FF0E5
:1035A0000001590141EAD261500102460B46214611
:1035B000511A3961294663EB01037B614FF0000228
:1035C0004FF00003D7E904AB59468B01514643EA5B
:1035D000916351468A015146B2EB0108594663EBAB
:1035E00001094FF000024FF000034FEAC90343EA1C
:1035F00058734FEAC80290469946234618EB0303D6
:10360000BB602B4649EB0303FB604FF000024FF019
:103610000003D7E9024529464B02214643EAD1532C
:1036200021464A02104619467B6C0022BB62FA62B0
:10363000D7E90A23FDF728FB02460B461346FB6435
:1036400058E0384B5B689B09002218461146C0F3CE
:1036500008033B6200237B62D7E9088942464B4658
:103660004FF000004FF00001590141EAD2615001D2
:1036700002460B464146B2EB010A494663EB010B99
:103680004FF000024FF000034FEA8B1343EA9A63B6
:103690004FEA8A12B2EB0A0463EB0B054FF000020B
:1036A0004FF00003EB0043EA5473E20014461D465A
:1036B0004346E3183B604B4645EB03037B604FF00A
:1036C00000024FF00003D7E9004529468B0221464E
:1036D00043EA915321468A02104619467B6C002228
:1036E000BB61FA61D7E90623FDF7CEFA02460B4625
:1036F0001346FB640B4B5B681B0C03F003030133A5
:103700005B003B64FA6C3B6CB2FBF3F3BB6402E01E
:10371000054BBB6400BFBB6C18465037BD46BDE8C7
:10372000B08F00BF003802400024F40000127A007D
:1037300080B400AF034B1B681846BD465DF8047BA0
:10374000704700BF0000002080B500AFFFF7F0FF1A
:103750000246054B9B689B0A03F007030349CB5CB9
:1037600022FA03F3184680BD00380240EC880008B6
:1037700080B500AFFFF7DCFF0246054B9B685B0B93
:1037800003F007030349CB5C22FA03F3184680BD1C
:1037900000380240EC88000880B582B000AF786045
:1037A0007B68002B01D1012342E07B6893F8413014
:1037B000DBB2002B06D17B68002283F840207868BA
:1037C000FDF7D6FE7B68242283F841207B681B68C6
:1037D000DA687B681B6822F40052DA60786800F0CF
:1037E00073F97B681B681A697B681B6822F4904236
:1037F0001A617B681B685A697B681B6822F02A0281
:103800005A617B681B68DA687B681B6842F4005267
:10381000DA607B6800225A647B68202283F84120AA
:103820007B68202283F842207B6800225A630023B1
:1038300018460837BD4680BD80B58AB002AFF86033
:10384000B9603B601346FB8000237B61FB6893F803
:103850004130DBB2202B75D1BB68002B02D0FB8836
:10386000002B01D101236EE0FB6800225A64FB6843
:10387000212283F84120FEF755F87861FB68FA8829
:103880009A84FB68FA88DA84FB689B68B3F5805FEA
:1038900008D1FB681B69002B04D10023FB61BB68C6
:1038A000BB6103E0BB68FB610023BB612EE03B68AA
:1038B00000937B6900228021F86800F048F80346F5
:1038C000002B05D0FB68202283F8412003233AE037
:1038D000FB69002B0BD1BB691B881A46FB681B6870
:1038E000C2F308025A60BB690233BB6107E0FB699F
:1038F0001A78FB681B685A60FB690133FB61FB683F
:10390000DB8C9BB2013B9AB2FB68DA84FB68DB8CF0
:103910009BB2002BCBD13B6800937B6900224021F6
:10392000F86800F014F80346002B05D0FB6820224D
:1039300083F84120032306E0FB68202283F841201E
:10394000002300E0022318462037BD4680BD80B525
:1039500086B000AFF860B9603B601346FB713BE096
:103960003B6AB3F1FF3F37D0FDF7DCFF02463B680F
:10397000D31A3A6A9A4202D33B6A002B01D103233D
:103980003AE0FB681B68DB6803F00403002B23D0DC
:10399000BB68802B20D0BB68402B1DD0FB681B6808
:1039A0001B6803F00803082B16D100237B61FB681A
:1039B0001B681B687B61FB681B685B687B617B69BC
:1039C000F86800F01DF8FB6808225A64FB680022C2
:1039D00083F8402001230FE0FB681B681A68BB686E
:1039E0001340BA689A420CBF01230023DBB21A4687
:1039F000FB799A42B4D0002318461837BD4680BDE3
:103A000080B495B000AF78607B681B680C337B6333
:103A10007B6B53E8003F3B633B6B23F49073FB6489
:103A20007B681B680C33FA6C3A64FB63F96B3A6C85
:103A300041E80023BB63BB6B002BE5D17B681B68AF
:103A400014333B623B6A53E8003FFB61FB6923F0A0
:103A50000103BB647B681B681433BA6CFA62BB62F7
:103A6000B96AFA6A41E800237B627B6A002BE5D1E0
:103A70007B681B6B012B19D17B681B680C33FB60C7
:103A8000FB6853E8003FBB60BB6823F010037B6416
:103A90007B681B680C337A6CBA617B617969BA699F
:103AA00041E800233B613B69002BE5D17B68202284
:103AB00083F842207B6800221A6300BF5437BD465A
:103AC0005DF8047B704700002DE9B04FC0B000AF37
:103AD000C7F8F400D7F8F4301B681B6923F4405092
:103AE000D7F8F430D968D7F8F4301A6840EA0103FF
:103AF0001361D7F8F4309A68D7F8F4301B691A4389
:103B0000D7F8F4305B691A43D7F8F430DB69134314
:103B1000C7F8F830D7F8F4301B68DB6823F4164197
:103B200021F00C01D7F8F4301A68D7F8F8300B43BD
:103B3000D360D7F8F4301B685B6923F44070D7F882
:103B4000F4309969D7F8F4301A6840EA01035361F8
:103B5000D7F8F4301A688F4B9A4205D0D7F8F43072
:103B60001A688D4B9A4204D1FFF702FEC7F8FC0099
:103B700003E0FFF7E9FDC7F8FC00D7F8F430DB6994
:103B8000B3F5004F40F00C81D7F8FC300022C7F8A5
:103B9000E830C7F8EC20D7E93A4522462B46911881
:103BA000B9655B41FB65D7E91623214612EB010895
:103BB000294643EB01094FF000024FF000034FEAA2
:103BC000C90343EA58734FEAC80290469946234610
:103BD00018EB0303C7F8E0302B4649EB0303C7F8A3
:103BE000E430D7F8F4305B680022C7F8D830C7F863
:103BF000DC20D7E936120B46DB183B65134642EB57
:103C000003037B65D7E91423D7E93801FDF73CF8B6
:103C100002460B46614BA3FB02235B091C01D7F84C
:103C2000FC300022C7F8D030C7F8D420D7E9348957
:103C300042464B469118B9645B41FB64D7E91223B5
:103C4000414612EB010A494643EB010B4FF00002DB
:103C50004FF000034FEACB0343EA5A734FEACA021C
:103C600092469B4643461AEB0303C7F8C8304B46BF
:103C70004BEB0303C7F8CC30D7F8F4305B68002275
:103C8000C7F8C030C7F8C420D7E930120B46DB189C
:103C90003B64134642EB03037B64D7E91023D7E967
:103CA0003201FCF7F1FF02460B4611463B4BA3FBEA
:103CB00001235B09642202FB03F3CB1ADB0003F14F
:103CC0003202364BA3FB02235B095B0003F4F8735B
:103CD0001C44D7F8FC300022C7F8B830C7F8BC2025
:103CE000D7E92E8942464B469118B9635B41FB6385
:103CF000D7E90E2341465118396349464B417B634E
:103D00004FF000024FF00003D7E90CAB5946CB004F
:103D1000514643EA51735146CA00104619460346BC
:103D200042469B18C7F8B0304B460A4642EB0303A5
:103D3000C7F8B430D7F8F4305B680022C7F8A83071
:103D4000C7F8AC20D7E92A120B46DB18BB62134632
:103D500042EB0303FB62D7E90A23D7E92C01FCF706
:103D600093FF02460B460D4BA3FB02135B09642134
:103D700001FB03F3D31ADB003233084AA2FB03230F
:103D80005B0903F00702D7F8F4301B6822449A60FD
:103D900006E100BF00100140001401401F85EB51F7
:103DA000D7F8FC300022C7F8A030C7F8A420D7E924
:103DB000288942464B46911839625B417B62D7E9BC
:103DC000082341465418494643EB01054FF00002D1
:103DD0004FF00003EB0043EA5473E20014461D4623
:103DE0004346E318C7F898304B4645EB0303C7F842
:103DF0009C30D7F8F4305B680022C7F89030C7F8E1
:103E000094204FF000024FF00003D7E924452946E3
:103E10008B00214643EA917321468A00D7E92601A7
:103E2000FCF732FF02460B46604BA3FB02235B0903
:103E30001C01D7F8FC300022C7F88830C7F88C2066
:103E4000D7E9228942464B469118B9615B41FB6133
:103E5000D7E9062341465118396149464B417B61F8
:103E60004FF000024FF00003D7E904AB5946CB00F6
:103E7000514643EA51735146CA001046194603465B
:103E800042469B18C7F880304B460A4642EB030374
:103E9000C7F88430D7F8F4305B680022BB67FA6754
:103EA0004FF000024FF00003D7E91E8949468B000E
:103EB000414643EA917341468A00D7E92001FCF765
:103EC000E3FE02460B461146384BA3FB01235B0978
:103ED000642202FB03F3CB1A1B013233334AA2FBE9
:103EE00003235B0903F0F0031C44D7F8FC300022E5
:103EF0003B677A67D7E91C8942464B469118B960FF
:103F00005B41FB60D7E902234146511839604946BD
:103F10004B417B604FF000024FF00003D7E900AB4C
:103F20005946CB00514643EA51735146CA001046E8
:103F30001946034642469B18BB664B460A4642EB6F
:103F40000303FB66D7F8F4305B6800223B667A66B1
:103F50004FF000024FF00003D7E9188949468B0063
:103F6000414643EA917341468A00D7E91A01FCF7BA
:103F70008BFE02460B460D4BA3FB02135B0964212B
:103F800001FB03F3D31A1B013233084AA2FB0323BC
:103F90005B0903F00F02D7F8F4301B6822449A60E3
:103FA00000BF07F58077BD46BDE8B08F1F85EB5198
:103FB0002DE9FF4755EC104B002D0E4619462B46B8
:103FC000BBBF05F100431D4600232D230B700D9B45
:103FD000DDF830A0914623F02008BCBF22461446ED
:103FE000B8F1460F05D0B8F1450F00D101360221D6
:103FF00000E0032103AB019302AB009345EC104BAF
:104000005346324601F080F9B8F1470F074602D116
:1040100019F0010F22D0B8F1460F07EB060910D1B5
:104020003B78302B0AD10022002320462946FCF79A
:104030004BFD18B9C6F10106CAF80060DAF8003085
:1040400099440022002320462946FCF73DFD08B193
:10405000CDF80C903022039B4B4507D3039B0E9A5F
:10406000DB1B3846136004B0BDE8F087591C039190
:104070001A70F0E7F7B503460029B8BF494203F8C4
:10408000022BB4BF2D222B22092942702ADD0DF10B
:10409000070217460A26944691FBF6F506FB15140F
:1040A00030340CF8014C0C46632C02F1FF322946E7
:1040B000F1DC3031ACF1020402F8011C411C224653
:1040C000BA420AD30DF10902A2EB0C02BC4288BF2E
:1040D00000221344181A03B0F0BD12F8015B01F876
:1040E000015FEDE7302330318370C170031DF1E7CC
:1040F0002DE9F04F2DED028B8DB00C46DDF8608080
:1041000016461F46054600F0F9FFD0F800A05046BD
:10411000FCF7AEF800230A9323680593D8F8003023
:1041200094F818B0073323F0070303F10802C8F826
:104130000020D3E9008929F000430793CDF81880C7
:1041400008EE100AC4E91289DDE906019E4B4FF022
:10415000FF32FCF7EBFC88BBDDE906019A4B4FF020
:10416000FF32FCF7C5FC48BB00220023404649460D
:10417000FCF7B4FC10B12D2384F84330934A944BE0
:10418000BBF1470F94BF9046984603232361059BDC
:1041900023F0040323604FF00009009733460BAA75
:1041A0002146284600F0DAF9013040F090804FF0C7
:1041B000FF300DB0BDEC028BBDE8F08F42464B46A0
:1041C00040464946FCF7B2FC40B14B46002BBCBF11
:1041D0002D2384F843307F4A7F4BD1E763680BF08F
:1041E000DF0206925A1C3FD106236360059B61687B
:1041F00043F48062002303930AABCDE901B309AB1A
:1042000049EC108B009322600DF123032846FFF741
:10421000CFFE069B0999472B804608D1C81C02DBBC
:104220006368994241DDABF102035FFA83FBBBF1A6
:10423000650F20D801395A4604F150000991FFF763
:1042400019FF0A9A1318012A8146236102DC2268A9
:10425000D20701D5013323619DF82330002B9CD078
:104260002D2384F8433098E7069A472ABED1002BC5
:10427000BCD10123B9E7BBF1660F18D100296368EF
:104280000BDD216113B92268D00702D501330B443D
:104290002361A1654FF00009DEE713B92268D20758
:1042A00001D50233F4E70123F2E74FF0670B0A9BD5
:1042B000994205DB23682161D807EAD54B1CE7E763
:1042C0000029D4BFC1F1020201221344E0E72368B0
:1042D0005A0507D42369424631462846B84701307B
:1042E0002CD164E7BBF1650F40F2E080D4E9120104
:1042F00000220023FCF7E8FB002834D0374A0123D2
:1043000031462846B84701303FF451AFDDE9092373
:104310009A4202DB2368D80710D518EE103A5246AD
:1043200031462846B84701303FF441AF4FF000080E
:1043300004F11A090A9B013B434509DC23689B07EA
:1043400000F10781E0680B9B9842B8BF184630E740
:1043500001234A4631462846B84701303FF427AF8B
:1043600008F10108E6E7099B002B39DC1B4A012311
:1043700031462846B84701303FF419AFDDE909322C
:10438000134302D12368D907D8D518EE103A524604
:1043900031462846B84701303FF409AF4FF00009D5
:1043A00004F11A0A099B5B424B4501DC0A9B92E728
:1043B0000123524631462846B84701303FF4F7AE54
:1043C00009F10109EEE700BFFFFFEF7FF488000865
:1043D000F8880008FC8800080089000804890008A3
:1043E0000A9AA36D9A42A8BF1A46002A914637DC62
:1043F0004FF0000B29EAE97904F11A02A36D059345
:10440000A3EB09035B4533DCDDE909239A423BDB7F
:104410002368DA0738D4DDE90932A2EB0309059BEA
:10442000D21A9145A8BF9146B9F1000F35DC4FF083
:10443000000829EAE97904F11A0ADDE909239B1A3F
:10444000A3EB090343457FF779AF01235246314679
:104450002846B84701303FF4AAAE08F10108ECE75E
:104460001346314642462846B8470130C0D19EE641
:104470000123314628460592B84701303FF497AEF4
:10448000059A0BF1010BB9E718EE103A5246314686
:104490002846B8470130BED189E6059A4B464244CA
:1044A00031462846B8470130C1D180E60A9A012A30
:1044B00001DCDB073AD50123424631462846B8479E
:1044C00001303FF474AE18EE103A52463146284699
:1044D000B84701303FF46BAED4E91201002200234B
:1044E000DDF828A0FCF7F0FAD8B90AF1FF3308F19B
:1044F000010231462846B84701300ED157E6012364
:10450000524631462846B84701303FF450AE08F1D4
:1045100001080A9B013B4345F1DC4B4604F1500284
:10452000DAE64FF0000804F11A0AF2E701234246E6
:10453000DFE701234A4631462846B84701303FF4B9
:1045400036AE08F10108E3680B995B1A4345F0DCCD
:10455000F8E64FF0000804F11909F4E72DE9F047F7
:10456000164699468A680B69DDF820809342B8BFE9
:104570001346336091F8432007460C460AB10133D5
:1045800033602368990642BF33680233336025687D
:1045900015F0060506D104F1190AE36832689B1A82
:1045A000AB4226DC94F84320131E226818BF012377
:1045B00092062BD404F1430249463846C0470130E5
:1045C0001ED02368226903F00603042B02BFE568AE
:1045D0003368ED1AA3680CBF25EAE5750025934200
:1045E000C4BF9B1AED1800261A34B5421AD1002018
:1045F00008E00123524649463846C047013003D1FE
:104600004FF0FF30BDE8F0870135C6E7E1185A1CCE
:10461000302081F84300224494F8451082F843107A
:104620000233C7E70123224649463846C0470130D6
:10463000E6D00136D9E700002DE9FF470F7E0C9D3B
:10464000782F914680460C469A4601F1430207D8DE
:10465000622F0AD8002F00F0D480582F00F0C080BD
:1046600004F1420584F842703AE0A7F16303152B88
:10467000F6D801A151F823F0D1460008E54600081C
:10468000614600086146000861460008614600086E
:10469000E5460008614600086146000861460008DA
:1046A00061460008E947000811470008A3470008D1
:1046B00061460008614600080B4800086146000892
:1046C000114700086146000861460008AB47000832
:1046D0002B681A1D1B682A6004F1420584F84230D9
:1046E00001239FE020682B68070603F1040129607D
:1046F00001D51E6803E04606FBD5B3F90060002E25
:1047000003DA2D23764284F843305A480A2312E014
:104710002B682068191D2960050601D51E6802E076
:104720004106FBD51E8853486F2F0CBF08230A2370
:10473000002184F843106568A560002DA2BF2168A0
:1047400021F0040121600EB9002D4BD01546B6FBB7
:10475000F3F103FB1167C75D05F8017D3746BB42E6
:104760000E46F4D9082B0BD12368DE0708D5236940
:1047700061689942DEBF302305F8013C05F1FF3541
:10478000521B2261CDF800A04B4603AA21464046A9
:10479000FFF7E4FE01304AD14FF0FF3004B0BDE82E
:1047A000F087236843F0200323603348782784F898
:1047B0004570236829681F0651F8046B02D45F0610
:1047C00048BFB6B2DF0748BF43F02003296048BFA7
:1047D00023601EB9236823F0200323601023A7E77A
:1047E0002448E4E71546BDE72B6826686169181D73
:1047F000286035061B6801D5196002E07006FBD5FC
:104800001980002323611546BCE72B681A1D2A6016
:104810001D68626800212846FBF7DAFC08B1401BDE
:10482000606063682361002384F84330AAE723694A
:104830002A4649464046D0470130ADD023689B0701
:1048400013D4E068039B9842B8BF1846A6E701233B
:10485000324649464046D04701309DD00135E36895
:1048600003995B1AAB42F2DCEBE7002504F1190671
:10487000F5E700BF06890008178900082DE9F04F09
:1048800087B0174603938B685A1EB2F5AE7F83BF7D
:104890006FF4AE755B190293002386BF40F25D137F
:1048A0008B6002930B688B46002543F4F0634BF852
:1048B0001C3BCDE9045580460C465E46AA46A946F7
:1048C0000195A26852B13B681B784E2B64D8402BEF
:1048D0003CD8A3F12B01C8B20E283AD9B9F1000F88
:1048E00003D0236823F4807323600AF1FF3ABAF1FE
:1048F000010F00F213815E4500F205810125284673
:1049000007B0BDE8F08FA3F161020D2AE6D801A13E
:1049100051F822F0534A0008DD480008DD4800083D
:10492000DD480008B34A00088B4A0008DD4800084B
:10493000DD480008614A0008DD480008DD4800083D
:10494000DD480008DD480008194A0008A3F14102CB
:10495000DBE70E29C2D801A050F821F00B4A00086D
:10496000DD4800080B4A00089F4A0008DD4800089F
:10497000B9490008F5490008F5490008F54900085B
:10498000F5490008F5490008F5490008F54900080F
:10499000F5490008F54900086E2B09D8602BB2D8FC
:1049A000542B77D0592B99D1072D97D1082529E081
:1049B000742B6FD0792BF6E72168C8051AD5029BB6
:1049C00021F08001216009F101091BB1013B013295
:1049D0000293A260A368013BA360236901332361B2
:1049E0007B68013B002B7B6040F384803B68013394
:1049F0003B6066E71AEB050F7FF470AF226822F484
:104A0000C072226006F8013BE4E7226810067FF5D9
:104A100065AF22F08002F4E7BAF1000F0ED1B9F1D0
:104A2000000F0ED1226802F4E061B1F5E06F08D109
:104A300022F4F06222604FF0010AE3E7BAF1020FBC
:104A400055D0012D02D0042D7FF448AF0135EDB2D1
:104A5000D8E7BAF1010F7FF441AF4FF0020AD1E776
:104A60007DB9B9F1000F7FF43CAF226802F4E06138
:104A7000B1F5E06F7FF439AF22F4F06222600125D6
:104A8000C0E7032DE2D0052DDEE7022D7FF426AF2F
:104A90000325B7E7062D7FF421AF0725B2E722688B
:104AA00091057FF51BAF22F420722260CDF80490AF
:104AB000A8E7226802F4A061B1F5806F06D0500526
:104AC0007FF50CAFB9F1000F3FF40FAF910558BF60
:104AD000019922F4F06258BFA9EB010142F4C072BF
:104AE00058BFCDE9041622604FF000098AE74FF065
:104AF000030A87E7D4F880313946404698470028B2
:104B00003FF4DFAEEAE6D4F87C3116F8011D3A46F0
:104B1000404698472369013B2361ECE66B1E062B58
:104B200025D8022D36D85E457FF6E8AED4F87C3124
:104B300016F8011D3A46404698472369013B236118
:104B4000F1E70298D4F87C3110F8011D02903A4642
:104B5000404698472369013B23610AF1FF3A5FFA17
:104B60008AFABAF1020FECD1033DEDB2761B23684D
:104B7000DA052FD55B0510D55E457FF6BFAED4F8BC
:104B80007C3116F8011D3A46404698472369013B9F
:104B90002361F1E7AA460296DFE716F8011C2369B4
:104BA000652903F1FF3306F1FF3523610CD0452958
:104BB0000AD0D4F87C313A4640469847236916F823
:104BC000021C013BB51E2361D4F87C313A464046B5
:104BD00098472E46256815F0100558D13570236882
:104BE00003F4C063B3F5806F1CD1019B4B45A3EB6D
:104BF000090224D100225946404602F031FD039BB0
:104C000021681B6811F0020F57EC106B03F10402CE
:104C100020D003990A601B68C3E90067E368013389
:104C2000E3606CE6049B002BE4D005990A232A4636
:104C30000131404602F09CFD049B059EC21A04F21D
:104C40006F139E4228BF04F5B7761249304600F034
:104C500055F9CFE711F0040F03990A60DBD1D3F8BF
:104C6000008010EE102A10EE100A3B463946FBF782
:104C70005DFF28B1084800F0B9FA88ED000ACDE7D9
:104C800030463946FBF7B0FFC8F80000C6E70025FC
:104C900035E600BF28890008BD8C0008002310B548
:104CA0000446C0E90033C0E9043383608181436670
:104CB000C2818361194608225C3000F017FA0D4B5F
:104CC00063620D4BA3620D4BE3620D4B23630D4BEF
:104CD00024629C4206D003F16802944202D0D03391
:104CE0009C4205D104F15800BDE8104000F07ABAAA
:104CF00010BD00BF3D4F00085F4F0008974F0008F0
:104D0000BB4F0008AC020020024A0349034800F0F0
:104D100069B800BF0C000020B97D00081800002011
:104D200041680C4B994210B5044601D003F044F899
:104D3000A168094B994202D0204603F03DF8E16892
:104D4000064B994204D02046BDE8104003F034B829
:104D500010BD00BFAC020020140300207C03002023
:104D600010B50B4B0B4C0C4A1A6020460022042154
:104D7000FFF794FF04F1680001220921FFF78EFF7D
:104D800004F1D0000222BDE810401221FFF786BFD7
:104D9000E4030020AC020020094D0008014800F0A7
:104DA00022BA00BFED030020014800F01DBA00BF89
:104DB000ED03002010B50446FFF7F0FF236A1BB196
:104DC000BDE81040FFF7F0BF044B2362044B1B68A3
:104DD000002BF5D1FFF7C4FFF2E700BF214D00081B
:104DE000E40300202DE9F8430746884614460026D0
:104DF000D4E90195B9F1010905D52468002CF7D152
:104E00003046BDE8F883AB89012B07D9B5F90E30E0
:104E1000013303D029463846C04706436835E9E7E1
:104E20000FB407B5064904AB086853F8042B816832
:104E3000019302F021FE03B05DF804EB04B070476B
:104E400064000020036A70B5846805460E460BB9FD
:104E5000FFF7B0FF636EDB0705D4A389980502D482
:104E6000A06D00F0C0F9A389190713D523698BB190
:104E7000013EA36816F8011F013BA360E9B9002BAE
:104E80002EDA22460A21284600F09BF8013007D08E
:104E90000A2507E02146284600F0D0F80028E7D090
:104EA0004FF0FF35636EDA0705D4A3899B0502D462
:104EB000A06D00F099F9284670BD002B04DAA269B4
:104EC0009A4206DC0A2904D023685A1C2260197011
:104ED000CFE72246284600F074F80130C9D1DFE759
:104EE00023680A255A1C22601D70DBE7024B01462D
:104EF0001868FFF7A7BF00BF640000200EB400B51C
:104F00009CB01DAB029006906FF0004109480791DC
:104F10000491094953F8042B05910068019302A9F3
:104F200002F082FC029B00221A701CB05DF804EBB8
:104F300003B07047640000200802FFFF10B50C4664
:104F4000B1F90E1000F000F90028ABBF636DA38922
:104F50001B1823F48053ACBF6365A38110BD2DE9FA
:104F6000F0411F468B89DB0505460C46164605D5E4
:104F7000B1F90E100223002200F0D4F8A389B4F98D
:104F80000E1023F48053A38132463B462846BDE8E9
:104F9000F04100F0EBB810B50C46B1F90E1000F07E
:104FA000C1F8431CA38915BF606523F4805343F403
:104FB0008053A38118BFA38110BDB1F90E1000F07A
:104FC000A1B8F8B50E461446054618B1036A0BB9E8
:104FD000FFF7F0FEA369A360A3891A0725D523690B
:104FE0001BB323682269981A6369F6B28342374675
:104FF00004DC2146284602F0DFFEE0B9A368013B4D
:10500000A36023685A1C22601E706269431C9A4286
:1050100004D0A389DB0706D50A2E04D121462846F1
:1050200002F0CAFE38B93846F8BD2146284600F0DD
:1050300005F80028D5D04FF0FF37F4E738B52A4BF4
:10504000054618680C4618B1036A0BB9FFF7B2FEA3
:10505000A389B4F90C20180722D4D90607D4092350
:105060002B6042F04003A3814FF0FF3034E058073B
:1050700012D5616B41B104F14403994202D0284634
:1050800000F034FF00236363A38923F02403A3818A
:105090000023636023692360A38943F00803A3818D
:1050A00023694BB9A38903F42073B3F5007F03D0C0
:1050B0002146284602F0CEFEA089B4F90C2010F05B
:1050C00001030AD00023A36063695B42A3612369E3
:1050D00043B910F08000C4D138BD810758BF63695F
:1050E000A360F4E70020F7E76400002002440346D1
:1050F000934200D1704703F8011BF9E7004870475D
:105100005801002038B5064D0023044608462B60A0
:10511000FCF7FBFA431C02D12B6803B1236038BDB6
:10512000E803002038B5074D044608461146002222
:105130002A601A46FCF710FB431C02D12B6803B10E
:10514000236038BDE803002038B5074D0446084603
:10515000114600222A601A46FCF79EFA431C02D12F
:105160002B6803B1236038BDE803002038B5074D34
:1051700004460846114600222A601A46FCF7A9FA9E
:10518000431C02D12B6803B1236038BDE803002023
:10519000014B1868704700BF6400002070B50D4DCA
:1051A0000D4C641BA4100026A64209D10B4D0C4CDB
:1051B00003F042FB641BA4100026A64205D170BD7B
:1051C00055F8043B98470136EEE755F8043B9847FD
:1051D0000136F2E7288D0008288D0008288D000888
:1051E0002C8D000870477047704700009FED010A42
:1051F000704700BF0000C07F2DE9F74F03690C69BD
:10520000A34207467EDB013C01F1140800F11405BE
:1052100005EB8403019358F8243055F8242001331A
:105220009A424FEA840B08EB8409B2FBF3F631D3C0
:105230004FF0000E4046AC46F24650F8042B93B2B5
:1052400006FB03E34FEA124E1A0C9BB2AAEB0303D0
:10525000DCF800A013FA8AF306FB0E220093009BF1
:105260004FEA124E92B2C2EB1A4202EB2342BDF851
:105270000030814543EA02434CF8043B4FEA224A9E
:10528000DBD255F80B302BB9019B043B9D421A46EB
:105290002CD33C61384601F0EFF9002822DB0136BF
:1052A0002946002058F8042BD1F800C093B2C31A45
:1052B000120C13FA8CF3C2EB1C4202EB23429BB29A
:1052C00043EA0243C14541F8043B4FEA2240E9D298
:1052D00055F8242005EB840322B9043B9D421A466D
:1052E0000AD33C61304603B0BDE8F08F1268043B3E
:1052F000002ACED1013CC9E71268043B002AF0D154
:10530000013CEBE70020EEE72DE9F04F2DED048B9B
:10531000C56993B08DED020B57EC106BDDF8808002
:10532000079104460A920D9375B9102000F02AFEE9
:105330000246E06120B9AE4BEF21AE4802F03CFEE0
:10534000C0E901550560C560E369196851B15A6843
:105350004A60012393408B60204600F007FFE36919
:1053600000221A603B1EBBBF23F0004303930023BF
:105370000122ACBFC8F80030C8F800209E4BDDF811
:105380000C8033EA08031BD10D9A42F20F731360AD
:10539000C8F31303334300F09385219B63B9974B04
:1053A00027E0974B00930833219A1360009813B0BD
:1053B000BDEC048BBDE8F08F904B00930333F3E713
:1053C0009DED027B002251EC170BB0EE478AF0EE08
:1053D000678A0023FBF778FB814660B10D9A0123B1
:1053E0001360219B002B00F06885864B219A136087
:1053F000013B0093DAE710AA11A92046B0EE480A53
:10540000F0EE680A01F04EFAC8F30A558246002D04
:105410007FD018EE903AC3F3130343F07F5351EC5F
:10542000180B43F44013A5F2FF35CDF83890194618
:105430000022754BFAF728FF67A3D3E90023FBF797
:10544000DBF867A3D3E90023FAF720FF06462846D6
:105450000F46FBF767F864A3D3E90023FBF7CCF80A
:1054600002460B4630463946FAF710FF06460F460D
:10547000FBF772FB00228346002330463946FBF7D8
:105480002DFB48B15846FBF74DF832463B46FBF73B
:105490001BFB08B90BF1FF3BBBF1160F57D85B4B59
:1054A00003EBCB03D3E9002351EC180BFBF716FBFE
:1054B00000284ED00BF1FF3B00230C93109B5B1B8D
:1054C0005A1E45BFC3F10103059300230023069232
:1054D00054BF05930693BBF1000F3CDB069BCDF850
:1054E0002CB05B44069300230893079B092B68D8D4
:1054F000052BC4BF043B0793079BA3F10203CCBF5A
:1055000000250125032B00F28580DFE803F02E3B08
:105510003958DDE910531D4405F23243202BC1BF39
:10552000C3F1400308FA03F805F2124326FA03F325
:10553000D6BFC3F1200348EA030006FA03F0FAF7E6
:10554000E1FF0122A1F1F873013D0E926FE7012303
:10555000B3E70C90B2E7059BA3EB0B030593CBF1EC
:105560000003089300230B93BFE7002309930A9BD2
:10557000002B52DC0123019304931A460A920BE09C
:105580000123F3E7002309930A9B5B440193013352
:10559000012B0493B8BF0123E0690021042202F12A
:1055A00014069E423DD94160204600F09FFD0090C8
:1055B000002839D1164B024640F2AF11BDE6012357
:1055C000E1E701250023079309954FF0FF3301938D
:1055D000049300221223D1E761436F63A787D23F70
:1055E000B3C8608B288AC63FFB799F501344D33FD2
:1055F0003A890008518900080000F07F36890008C8
:105600002D890008058900080000F83F408A00083D
:10561000A989000801230993D7E70A9B0193049302
:10562000BAE701315200BAE7E369009A1A60049BB5
:105630000E2B00F2A880002D00F0A580BBF1000F1A
:1056400038DDC04B0BF00F0203EBC2031BF4807F6D
:10565000D3E900674FEA2B1819D0BB4B51EC180B5C
:10566000D3E90823FBF7F2F8CDE9020108F00F08AF
:105670000325DFF8D492B8F1000F0AD1DDE9020169
:1056800032463B46FBF7E2F8CDE902012BE002256A
:10569000EFE718F0010F08D030463946D9E900236A
:1056A000FAF7AAFF013506460F464FEA680809F1E6
:1056B0000809E0E700F09F80CBF10006A14BA24F64
:1056C00006F00F0203EBC203D3E9002351EC180BE1
:1056D000FAF792FFCDE90201361100230225002ED0
:1056E0007ED1002BD0D10C9BDDE90289002B00F08C
:1056F0008480964B002240464946FBF7EFF900288C
:105700007BD0049B002B78D0019B002B39DD904B84
:10571000002240464946FAF76FFFCDE90201019E9B
:105720000BF1FF370135DDE902892846FAF7FAFE69
:1057300042464B46FAF760FF864B0022FAF7A6FD79
:10574000A1F15073CDE902010393002E58D1824B91
:10575000002240464946FAF797FDDDE902238046DC
:105760008946FBF7D9F9002840F09682DDE902214D
:10577000404601F100434946FBF7B0F9002840F0EC
:1057800089828DED028B119B002BC0F24E81BBF103
:105790000E0F00F34A816B4B03EBCB03D3E9008977
:1057A0000A9B002B80F2DC80049B002B00F3D88046
:1057B00040F06F82684B002240464946FAF71CFFD2
:1057C000DDE90223FBF79EF9049E3746002840F0EE
:1057D0004582009D312305F8013B0BF1010B41E2AD
:1057E000F20705D5D7E90023FAF706FF01350123B3
:1057F0007610083773E7022575E7049E5F4692E747
:105800000099504B9DED027B314402910999B0EE15
:10581000479AF0EE679A03EBC60353E90223002987
:1058200044D04E490020FBF711F853EC192BFAF73E
:105830002BFD009D41EC190B49464046FBF78CF9C6
:105840000646FAF76FFE02460B4640464946FAF70F
:105850001BFD303605F8016B53EC192B8046894649
:10586000FBF73CF9002864D142464B4637490020FB
:10587000FAF70AFD53EC192BFBF730F9002840F03A
:10588000B680029B9D423FF47CAF314B51EC190B2B
:105890000022FAF7B1FE2E4B41EC190B00224046D4
:1058A0004946FAF7A9FE80468946C5E751EC170B31
:1058B000FAF7A2FE029B009D0F9341EC190B49469B
:1058C0004046FBF749F90646FAF72CFE3036024609
:1058D0000B4640464946FAF7D7FC05F8016B029B98
:1058E0009D42804689464FF0000224D11B4B51EC6B
:1058F000190BFAF7CBFC02460B4640464946FBF72C
:105900000BF9002873D153EC192B14490020FAF736
:10591000BBFC02460B4640464946FBF7DFF8002831
:105920003FF42FAF0F9D6B1E0F9315F8013C302BEA
:10593000F8D0BB464AE0064BFAF75EFE8046894641
:10594000BDE700BF408A0008188A00080000F03F49
:105950000000244000001C40000014400000E03F14
:10596000DDE90267009D42464B4630463946FAF76C
:105970006DFFFBF7F1F80190FAF7D4FD42464B4674
:10598000FAF73AFE02460B4630463946FAF77CFCF7
:10599000019E049F303605F8016B009EAE1BB74296
:1059A00002460B4634D1FAF771FC42464B46064696
:1059B0000F46FBF7B1F8C8B942464B463046394668
:1059C000FBF782F810B1019BDB070FD4514620464C
:1059D00000F0CCFB00230D9A2B700BF10103136038
:1059E000219B002B3FF4E2AC1D60DFE45F462B46B9
:1059F0001D4613F8012D392A06D1009A9A42F7D193
:105A00000099302201370A701A7801321A7090E733
:105A1000A34B0022FAF7F0FD0022002306460F46B2
:105A2000FBF752F800289ED0D0E7099A002A00F030
:105A3000CA80079A012A00F3AD800E9A002A00F06E
:105A4000A58003F23343089E059D059A1A440592EA
:105A5000069A01211A442046069200F087FC074668
:105A600065B1069B002B09DDAB42059AA8BF2B460A
:105A7000D21A0592069AED1AD31A0693089BF3B12F
:105A8000099B002B00F0A380002E10DD3946324622
:105A9000204600F02BFD524601460746204600F006
:105AA0007BFC51468046204600F060FBC246089BC6
:105AB0009A1B04D05146204600F018FD8246012171
:105AC000204600F053FC0B9B002B064640F38180E0
:105AD0001A460146204600F009FD079B012B0646A9
